{
  "address": "0xdE0452871FD1F638c8EAE62312255937Df022cE5",
  "abi": [
    {
      "inputs": [],
      "stateMutability": "nonpayable",
      "type": "constructor"
    },
    {
      "inputs": [],
      "name": "doStuff",
      "outputs": [],
      "stateMutability": "nonpayable",
      "type": "function"
    }
  ],
  "transactionHash": "0x6bbb602f02f7132e62a18303dbc1c874dd9ea5744c3b8d7f39bb12339aa027ee",
  "args": [],
  "numDeployments": 1,
  "solcInputHash": "3ca5c831b827464428b46694b71b43fa",
  "bytecode": "0x60a060405234801561001057600080fd5b50601960008190555060018060006101000a81548160ff021916908315150217905550600260de908060018154018082558091505060019003906000526020600020016000909190919091505560016003600080815260200190815260200160002060006101000a81548160ff021916908315150217905550607b6080818152505060805161011c6100aa6000396000505061011c6000f3fe6080604052348015600f57600080fd5b506004361060285760003560e01c8063874f33a114602d575b600080fd5b60336035565b005b60006001600054604491906097565b90506000600160009054906101000a900460ff1690505050565b6000819050919050565b7f4e487b7100000000000000000000000000000000000000000000000000000000600052601160045260246000fd5b600060a082605e565b915060a983605e565b9250827fffffffffffffffffffffffffffffffffffffffffffffffffffffffffffffffff0382111560db5760da6068565b5b82820190509291505056fea26469706673582212207034302f18209ee1464a6092fd482ebdec88534ced8f9dbc2e0ccb1826eade1164736f6c63430008080033",
  "devdoc": {
    "kind": "dev",
    "methods": {},
    "version": 1
  },
  "userdoc": {
    "kind": "user",
    "methods": {},
    "version": 1
  },
  "storageLayout": {
    "storage": [
      {
        "astId": 364,
        "contract": "contracts/exampleContracts/FunWithStorage.sol:FunWithStorage",
        "label": "favoriteNumber",
        "offset": 0,
        "slot": "0",
        "type": "t_uint256"
      },
      {
        "astId": 366,
        "contract": "contracts/exampleContracts/FunWithStorage.sol:FunWithStorage",
        "label": "someBool",
        "offset": 0,
        "slot": "1",
        "type": "t_bool"
      },
      {
        "astId": 369,
        "contract": "contracts/exampleContracts/FunWithStorage.sol:FunWithStorage",
        "label": "myArray",
        "offset": 0,
        "slot": "2",
        "type": "t_array(t_uint256)dyn_storage"
      },
      {
        "astId": 373,
        "contract": "contracts/exampleContracts/FunWithStorage.sol:FunWithStorage",
        "label": "myMap",
        "offset": 0,
        "slot": "3",
        "type": "t_mapping(t_uint256,t_bool)"
      }
    ],
    "types": {
      "t_array(t_uint256)dyn_storage": {
        "base": "t_uint256",
        "encoding": "dynamic_array",
        "label": "uint256[]",
        "numberOfBytes": "32"
      },
      "t_bool": {
        "encoding": "inplace",
        "label": "bool",
        "numberOfBytes": "1"
      },
      "t_mapping(t_uint256,t_bool)": {
        "encoding": "mapping",
        "key": "t_uint256",
        "label": "mapping(uint256 => bool)",
        "numberOfBytes": "32",
        "value": "t_bool"
      },
      "t_uint256": {
        "encoding": "inplace",
        "label": "uint256",
        "numberOfBytes": "32"
      }
    }
  }
}